{
  "contractName": "Aid1",
  "abi": [
    {
      "constant": true,
      "inputs": [],
      "name": "name",
      "outputs": [
        {
          "name": "",
          "type": "string"
        }
      ],
      "payable": false,
      "stateMutability": "view",
      "type": "function"
    },
    {
      "constant": false,
      "inputs": [
        {
          "name": "_spender",
          "type": "address"
        },
        {
          "name": "_amount",
          "type": "uint256"
        }
      ],
      "name": "approve",
      "outputs": [
        {
          "name": "success",
          "type": "bool"
        }
      ],
      "payable": false,
      "stateMutability": "nonpayable",
      "type": "function"
    },
    {
      "constant": true,
      "inputs": [],
      "name": "lockTime",
      "outputs": [
        {
          "name": "",
          "type": "uint256"
        }
      ],
      "payable": false,
      "stateMutability": "view",
      "type": "function"
    },
    {
      "constant": true,
      "inputs": [],
      "name": "totalSupply",
      "outputs": [
        {
          "name": "",
          "type": "uint256"
        }
      ],
      "payable": false,
      "stateMutability": "view",
      "type": "function"
    },
    {
      "constant": false,
      "inputs": [
        {
          "name": "_from",
          "type": "address"
        },
        {
          "name": "_to",
          "type": "address"
        },
        {
          "name": "_amount",
          "type": "uint256"
        }
      ],
      "name": "transferFrom",
      "outputs": [
        {
          "name": "sucess",
          "type": "bool"
        }
      ],
      "payable": false,
      "stateMutability": "nonpayable",
      "type": "function"
    },
    {
      "constant": true,
      "inputs": [
        {
          "name": "",
          "type": "address"
        }
      ],
      "name": "balances",
      "outputs": [
        {
          "name": "",
          "type": "uint256"
        }
      ],
      "payable": false,
      "stateMutability": "view",
      "type": "function"
    },
    {
      "constant": true,
      "inputs": [],
      "name": "decimals",
      "outputs": [
        {
          "name": "",
          "type": "uint8"
        }
      ],
      "payable": false,
      "stateMutability": "view",
      "type": "function"
    },
    {
      "constant": false,
      "inputs": [
        {
          "name": "_tokenAddress",
          "type": "address"
        }
      ],
      "name": "cancelAgreement",
      "outputs": [
        {
          "name": "",
          "type": "bool"
        }
      ],
      "payable": false,
      "stateMutability": "nonpayable",
      "type": "function"
    },
    {
      "constant": true,
      "inputs": [],
      "name": "_totalSupply",
      "outputs": [
        {
          "name": "",
          "type": "uint256"
        }
      ],
      "payable": false,
      "stateMutability": "view",
      "type": "function"
    },
    {
      "constant": true,
      "inputs": [],
      "name": "lockInterval",
      "outputs": [
        {
          "name": "",
          "type": "uint256"
        }
      ],
      "payable": false,
      "stateMutability": "view",
      "type": "function"
    },
    {
      "constant": false,
      "inputs": [
        {
          "name": "_tokenAddress",
          "type": "address"
        },
        {
          "name": "_to",
          "type": "address"
        },
        {
          "name": "_amount",
          "type": "uint256"
        }
      ],
      "name": "returnTokens",
      "outputs": [
        {
          "name": "",
          "type": "bool"
        }
      ],
      "payable": false,
      "stateMutability": "nonpayable",
      "type": "function"
    },
    {
      "constant": false,
      "inputs": [
        {
          "name": "_amount",
          "type": "uint256"
        },
        {
          "name": "_additionalTokens",
          "type": "address[]"
        }
      ],
      "name": "cashOut",
      "outputs": [
        {
          "name": "",
          "type": "bool"
        }
      ],
      "payable": false,
      "stateMutability": "nonpayable",
      "type": "function"
    },
    {
      "constant": true,
      "inputs": [
        {
          "name": "",
          "type": "address"
        },
        {
          "name": "",
          "type": "address"
        }
      ],
      "name": "allowed",
      "outputs": [
        {
          "name": "",
          "type": "uint256"
        }
      ],
      "payable": false,
      "stateMutability": "view",
      "type": "function"
    },
    {
      "constant": true,
      "inputs": [
        {
          "name": "",
          "type": "address"
        }
      ],
      "name": "toAddressByTokenAddress",
      "outputs": [
        {
          "name": "",
          "type": "address"
        }
      ],
      "payable": false,
      "stateMutability": "view",
      "type": "function"
    },
    {
      "constant": true,
      "inputs": [],
      "name": "entryLock",
      "outputs": [
        {
          "name": "",
          "type": "bool"
        }
      ],
      "payable": false,
      "stateMutability": "view",
      "type": "function"
    },
    {
      "constant": true,
      "inputs": [
        {
          "name": "_addr",
          "type": "address"
        }
      ],
      "name": "balanceOf",
      "outputs": [
        {
          "name": "balance",
          "type": "uint256"
        }
      ],
      "payable": false,
      "stateMutability": "view",
      "type": "function"
    },
    {
      "constant": false,
      "inputs": [
        {
          "name": "_tokenAddress",
          "type": "address"
        },
        {
          "name": "_to",
          "type": "address"
        },
        {
          "name": "_sendAmount",
          "type": "uint256"
        }
      ],
      "name": "setupAgreement",
      "outputs": [
        {
          "name": "",
          "type": "bool"
        }
      ],
      "payable": false,
      "stateMutability": "nonpayable",
      "type": "function"
    },
    {
      "constant": true,
      "inputs": [],
      "name": "owner",
      "outputs": [
        {
          "name": "",
          "type": "address"
        }
      ],
      "payable": false,
      "stateMutability": "view",
      "type": "function"
    },
    {
      "constant": true,
      "inputs": [],
      "name": "ownerPercent",
      "outputs": [
        {
          "name": "",
          "type": "uint8"
        }
      ],
      "payable": false,
      "stateMutability": "view",
      "type": "function"
    },
    {
      "constant": true,
      "inputs": [],
      "name": "symbol",
      "outputs": [
        {
          "name": "",
          "type": "string"
        }
      ],
      "payable": false,
      "stateMutability": "view",
      "type": "function"
    },
    {
      "constant": false,
      "inputs": [],
      "name": "unlock",
      "outputs": [
        {
          "name": "",
          "type": "bool"
        }
      ],
      "payable": false,
      "stateMutability": "nonpayable",
      "type": "function"
    },
    {
      "constant": false,
      "inputs": [
        {
          "name": "_to",
          "type": "address"
        },
        {
          "name": "_amount",
          "type": "uint256"
        }
      ],
      "name": "transfer",
      "outputs": [
        {
          "name": "sucess",
          "type": "bool"
        }
      ],
      "payable": false,
      "stateMutability": "nonpayable",
      "type": "function"
    },
    {
      "constant": true,
      "inputs": [],
      "name": "state",
      "outputs": [
        {
          "name": "",
          "type": "uint8"
        }
      ],
      "payable": false,
      "stateMutability": "view",
      "type": "function"
    },
    {
      "constant": true,
      "inputs": [
        {
          "name": "_owner",
          "type": "address"
        },
        {
          "name": "_spender",
          "type": "address"
        }
      ],
      "name": "allowance",
      "outputs": [
        {
          "name": "remaining",
          "type": "uint256"
        }
      ],
      "payable": false,
      "stateMutability": "view",
      "type": "function"
    },
    {
      "constant": true,
      "inputs": [
        {
          "name": "",
          "type": "uint256"
        }
      ],
      "name": "tokenAddresses",
      "outputs": [
        {
          "name": "",
          "type": "address"
        }
      ],
      "payable": false,
      "stateMutability": "view",
      "type": "function"
    },
    {
      "constant": true,
      "inputs": [
        {
          "name": "_tokenAddress",
          "type": "address"
        }
      ],
      "name": "getTokensHeld",
      "outputs": [
        {
          "name": "",
          "type": "uint256"
        }
      ],
      "payable": false,
      "stateMutability": "view",
      "type": "function"
    },
    {
      "constant": false,
      "inputs": [],
      "name": "lock",
      "outputs": [
        {
          "name": "",
          "type": "bool"
        }
      ],
      "payable": false,
      "stateMutability": "nonpayable",
      "type": "function"
    },
    {
      "inputs": [],
      "payable": false,
      "stateMutability": "nonpayable",
      "type": "constructor"
    },
    {
      "anonymous": false,
      "inputs": [
        {
          "indexed": true,
          "name": "_from",
          "type": "address"
        },
        {
          "indexed": true,
          "name": "_to",
          "type": "address"
        },
        {
          "indexed": false,
          "name": "_amount",
          "type": "uint256"
        }
      ],
      "name": "Transfer",
      "type": "event"
    },
    {
      "anonymous": false,
      "inputs": [
        {
          "indexed": true,
          "name": "_owner",
          "type": "address"
        },
        {
          "indexed": true,
          "name": "_spender",
          "type": "address"
        },
        {
          "indexed": false,
          "name": "_amount",
          "type": "uint256"
        }
      ],
      "name": "Approval",
      "type": "event"
    }
  ],
  "bytecode": "0x60606040526ac4de75da4284ebae0000006000556000600360146101000a81548160ff021916908315150217905550600a600360156101000a81548160ff021916908360ff160217905550630d2868806004556000600560006101000a81548160ff021916908360ff160217905550341561007957600080fd5b33600360006101000a81548173ffffffffffffffffffffffffffffffffffffffff021916908373ffffffffffffffffffffffffffffffffffffffff16021790555060005460016000600360009054906101000a900473ffffffffffffffffffffffffffffffffffffffff1673ffffffffffffffffffffffffffffffffffffffff1673ffffffffffffffffffffffffffffffffffffffff1681526020019081526020016000208190555061285c806101316000396000f30060606040526004361061015f576000357c0100000000000000000000000000000000000000000000000000000000900463ffffffff16806306fdde0314610164578063095ea7b3146101f25780630d6680871461024c57806318160ddd1461027557806323b872dd1461029e57806327e235e314610317578063313ce567146103645780633a867ae9146103935780633eaaf86b146103e457806349abd8ec1461040d57806357fc39911461043657806358a83fda146104af5780635c6581651461052a57806362300afa146105965780636ab0bc421461060f57806370a082311461063c5780637a3ea03b146106895780638da5cb5b1461070257806395d120001461075757806395d89b4114610786578063a69df4b514610814578063a9059cbb14610841578063c19d93fb1461089b578063dd62ed3e146108ca578063e5df8b8414610936578063f33bed7f14610999578063f83d08ba146109e6575b600080fd5b341561016f57600080fd5b610177610a13565b6040518080602001828103825283818151815260200191508051906020019080838360005b838110156101b757808201518184015260208101905061019c565b50505050905090810190601f1680156101e45780820380516001836020036101000a031916815260200191505b509250505060405180910390f35b34156101fd57600080fd5b610232600480803573ffffffffffffffffffffffffffffffffffffffff16906020019091908035906020019091905050610a4c565b604051808215151515815260200191505060405180910390f35b341561025757600080fd5b61025f610bd6565b6040518082815260200191505060405180910390f35b341561028057600080fd5b610288610bdc565b6040518082815260200191505060405180910390f35b34156102a957600080fd5b6102fd600480803573ffffffffffffffffffffffffffffffffffffffff1690602001909190803573ffffffffffffffffffffffffffffffffffffffff16906020019091908035906020019091905050610be5565b604051808215151515815260200191505060405180910390f35b341561032257600080fd5b61034e600480803573ffffffffffffffffffffffffffffffffffffffff16906020019091905050611041565b6040518082815260200191505060405180910390f35b341561036f57600080fd5b610377611059565b604051808260ff1660ff16815260200191505060405180910390f35b341561039e57600080fd5b6103ca600480803573ffffffffffffffffffffffffffffffffffffffff1690602001909190505061105e565b604051808215151515815260200191505060405180910390f35b34156103ef57600080fd5b6103f7611437565b6040518082815260200191505060405180910390f35b341561041857600080fd5b61042061143d565b6040518082815260200191505060405180910390f35b341561044157600080fd5b610495600480803573ffffffffffffffffffffffffffffffffffffffff1690602001909190803573ffffffffffffffffffffffffffffffffffffffff16906020019091908035906020019091905050611443565b604051808215151515815260200191505060405180910390f35b34156104ba57600080fd5b610510600480803590602001909190803590602001908201803590602001908080602002602001604051908101604052809392919081815260200183836020028082843782019150505050505091905050611626565b604051808215151515815260200191505060405180910390f35b341561053557600080fd5b610580600480803573ffffffffffffffffffffffffffffffffffffffff1690602001909190803573ffffffffffffffffffffffffffffffffffffffff16906020019091905050611af2565b6040518082815260200191505060405180910390f35b34156105a157600080fd5b6105cd600480803573ffffffffffffffffffffffffffffffffffffffff16906020019091905050611b17565b604051808273ffffffffffffffffffffffffffffffffffffffff1673ffffffffffffffffffffffffffffffffffffffff16815260200191505060405180910390f35b341561061a57600080fd5b610622611b4a565b604051808215151515815260200191505060405180910390f35b341561064757600080fd5b610673600480803573ffffffffffffffffffffffffffffffffffffffff16906020019091905050611b5d565b6040518082815260200191505060405180910390f35b341561069457600080fd5b6106e8600480803573ffffffffffffffffffffffffffffffffffffffff1690602001909190803573ffffffffffffffffffffffffffffffffffffffff16906020019091908035906020019091905050611ba6565b604051808215151515815260200191505060405180910390f35b341561070d57600080fd5b610715611f29565b604051808273ffffffffffffffffffffffffffffffffffffffff1673ffffffffffffffffffffffffffffffffffffffff16815260200191505060405180910390f35b341561076257600080fd5b61076a611f4f565b604051808260ff1660ff16815260200191505060405180910390f35b341561079157600080fd5b610799611f62565b6040518080602001828103825283818151815260200191508051906020019080838360005b838110156107d95780820151818401526020810190506107be565b50505050905090810190601f1680156108065780820380516001836020036101000a031916815260200191505b509250505060405180910390f35b341561081f57600080fd5b610827611f9b565b604051808215151515815260200191505060405180910390f35b341561084c57600080fd5b610881600480803573ffffffffffffffffffffffffffffffffffffffff16906020019091908035906020019091905050612008565b604051808215151515815260200191505060405180910390f35b34156108a657600080fd5b6108ae6122c9565b604051808260ff1660ff16815260200191505060405180910390f35b34156108d557600080fd5b610920600480803573ffffffffffffffffffffffffffffffffffffffff1690602001909190803573ffffffffffffffffffffffffffffffffffffffff169060200190919050506122dc565b6040518082815260200191505060405180910390f35b341561094157600080fd5b61095760048080359060200190919050506123da565b604051808273ffffffffffffffffffffffffffffffffffffffff1673ffffffffffffffffffffffffffffffffffffffff16815260200191505060405180910390f35b34156109a457600080fd5b6109d0600480803573ffffffffffffffffffffffffffffffffffffffff16906020019091905050612419565b6040518082815260200191505060405180910390f35b34156109f157600080fd5b6109f961251b565b604051808215151515815260200191505060405180910390f35b6040805190810160405280600581526020017f4169642d3100000000000000000000000000000000000000000000000000000081525081565b60008073ffffffffffffffffffffffffffffffffffffffff168373ffffffffffffffffffffffffffffffffffffffff1614151515610a8957600080fd5b600082111515610a9857600080fd5b600160003373ffffffffffffffffffffffffffffffffffffffff1673ffffffffffffffffffffffffffffffffffffffff168152602001908152602001600020548211151515610ae657600080fd5b81600260003373ffffffffffffffffffffffffffffffffffffffff1673ffffffffffffffffffffffffffffffffffffffff16815260200190815260200160002060008573ffffffffffffffffffffffffffffffffffffffff1673ffffffffffffffffffffffffffffffffffffffff168152602001908152602001600020819055508273ffffffffffffffffffffffffffffffffffffffff163373ffffffffffffffffffffffffffffffffffffffff167f8c5be1e5ebec7d5bd14f71427d1e84f3dd0314c0f7b2291e5b200ac8c7c3b925846040518082815260200191505060405180910390a36001905092915050565b60065481565b60008054905090565b60008073ffffffffffffffffffffffffffffffffffffffff168373ffffffffffffffffffffffffffffffffffffffff1614151515610c2257600080fd5b600082111515610c3157600080fd5b600160008573ffffffffffffffffffffffffffffffffffffffff1673ffffffffffffffffffffffffffffffffffffffff168152602001908152602001600020548211151515610c7f57600080fd5b600260008573ffffffffffffffffffffffffffffffffffffffff1673ffffffffffffffffffffffffffffffffffffffff16815260200190815260200160002060003373ffffffffffffffffffffffffffffffffffffffff1673ffffffffffffffffffffffffffffffffffffffff168152602001908152602001600020548211151515610d0a57600080fd5b600160008473ffffffffffffffffffffffffffffffffffffffff1673ffffffffffffffffffffffffffffffffffffffff1681526020019081526020016000205482600160008673ffffffffffffffffffffffffffffffffffffffff1673ffffffffffffffffffffffffffffffffffffffff1681526020019081526020016000205401111515610d9857600080fd5b610dea82600160008773ffffffffffffffffffffffffffffffffffffffff1673ffffffffffffffffffffffffffffffffffffffff1681526020019081526020016000205461275290919063ffffffff16565b600160008673ffffffffffffffffffffffffffffffffffffffff1673ffffffffffffffffffffffffffffffffffffffff16815260200190815260200160002081905550610e7f82600160008673ffffffffffffffffffffffffffffffffffffffff1673ffffffffffffffffffffffffffffffffffffffff1681526020019081526020016000205461276b90919063ffffffff16565b600160008573ffffffffffffffffffffffffffffffffffffffff1673ffffffffffffffffffffffffffffffffffffffff16815260200190815260200160002081905550610f5182600260008773ffffffffffffffffffffffffffffffffffffffff1673ffffffffffffffffffffffffffffffffffffffff16815260200190815260200160002060003373ffffffffffffffffffffffffffffffffffffffff1673ffffffffffffffffffffffffffffffffffffffff1681526020019081526020016000205461275290919063ffffffff16565b600260008673ffffffffffffffffffffffffffffffffffffffff1673ffffffffffffffffffffffffffffffffffffffff16815260200190815260200160002060003373ffffffffffffffffffffffffffffffffffffffff1673ffffffffffffffffffffffffffffffffffffffff168152602001908152602001600020819055508273ffffffffffffffffffffffffffffffffffffffff168473ffffffffffffffffffffffffffffffffffffffff167fddf252ad1be2c89b69c2b068fc378daa952ba7f163c4a11628f55a4df523b3ef846040518082815260200191505060405180910390a3600190509392505050565b60016020528060005260406000206000915090505481565b601281565b60008060008080600560009054906101000a900460ff1660ff1614151561108457600080fd5b600360009054906101000a900473ffffffffffffffffffffffffffffffffffffffff1673ffffffffffffffffffffffffffffffffffffffff163373ffffffffffffffffffffffffffffffffffffffff161415156110e057600080fd5b60001515600360149054906101000a900460ff16151514151561110257600080fd5b6001600360146101000a81548160ff021916908315150217905550600073ffffffffffffffffffffffffffffffffffffffff168573ffffffffffffffffffffffffffffffffffffffff161415151561115957600080fd5b600760008673ffffffffffffffffffffffffffffffffffffffff1673ffffffffffffffffffffffffffffffffffffffff16815260200190815260200160002060009054906101000a900473ffffffffffffffffffffffffffffffffffffffff169250600073ffffffffffffffffffffffffffffffffffffffff168373ffffffffffffffffffffffffffffffffffffffff16141515156111f757600080fd5b6000600160008573ffffffffffffffffffffffffffffffffffffffff1673ffffffffffffffffffffffffffffffffffffffff1681526020019081526020016000205411151561124557600080fd5b6112f8600160008573ffffffffffffffffffffffffffffffffffffffff1673ffffffffffffffffffffffffffffffffffffffff1681526020019081526020016000205460016000600360009054906101000a900473ffffffffffffffffffffffffffffffffffffffff1673ffffffffffffffffffffffffffffffffffffffff1673ffffffffffffffffffffffffffffffffffffffff1681526020019081526020016000205461276b90919063ffffffff16565b506000600160008573ffffffffffffffffffffffffffffffffffffffff1673ffffffffffffffffffffffffffffffffffffffff1681526020019081526020016000208190555061134785612419565b91508473ffffffffffffffffffffffffffffffffffffffff1663a9059cbb84846000604051602001526040518363ffffffff167c0100000000000000000000000000000000000000000000000000000000028152600401808373ffffffffffffffffffffffffffffffffffffffff1673ffffffffffffffffffffffffffffffffffffffff16815260200182815260200192505050602060405180830381600087803b15156113f457600080fd5b6102c65a03f1151561140557600080fd5b5050506040518051905050600193506000600360146101000a81548160ff021916908315150217905550505050919050565b60005481565b60045481565b60008080600560009054906101000a900460ff1660ff1614151561146657600080fd5b600360009054906101000a900473ffffffffffffffffffffffffffffffffffffffff1673ffffffffffffffffffffffffffffffffffffffff163373ffffffffffffffffffffffffffffffffffffffff161415156114c257600080fd5b60001515600360149054906101000a900460ff1615151415156114e457600080fd5b6001600360146101000a81548160ff021916908315150217905550600073ffffffffffffffffffffffffffffffffffffffff168473ffffffffffffffffffffffffffffffffffffffff161415151561153b57600080fd5b8473ffffffffffffffffffffffffffffffffffffffff1663a9059cbb85856000604051602001526040518363ffffffff167c0100000000000000000000000000000000000000000000000000000000028152600401808373ffffffffffffffffffffffffffffffffffffffff1673ffffffffffffffffffffffffffffffffffffffff16815260200182815260200192505050602060405180830381600087803b15156115e657600080fd5b6102c65a03f115156115f757600080fd5b5050506040518051905091506000600360146101000a81548160ff021916908315150217905550509392505050565b600080600080600080600280600560009054906101000a900460ff1660ff1614151561165157600080fd5b60001515600360149054906101000a900460ff16151514151561167357600080fd5b6001600360146101000a81548160ff021916908315150217905550600160003373ffffffffffffffffffffffffffffffffffffffff1673ffffffffffffffffffffffffffffffffffffffff1681526020019081526020016000205489111515156116dc57600080fd5b6000891115156116eb57600080fd5b60005495506117058960005461275290919063ffffffff16565b5061175889600160003373ffffffffffffffffffffffffffffffffffffffff1673ffffffffffffffffffffffffffffffffffffffff1681526020019081526020016000205461275290919063ffffffff16565b600160003373ffffffffffffffffffffffffffffffffffffffff1673ffffffffffffffffffffffffffffffffffffffff168152602001908152602001600020819055506117d7866117c93073ffffffffffffffffffffffffffffffffffffffff16318c61278990919063ffffffff16565b6127c490919063ffffffff16565b94503073ffffffffffffffffffffffffffffffffffffffff163185101515611830573373ffffffffffffffffffffffffffffffffffffffff166108fc869081150290604051600060405180830381858888f19350505050505b600091505b60088054905082101561198f5760088281548110151561185157fe5b906000526020600020900160009054906101000a900473ffffffffffffffffffffffffffffffffffffffff16935061188884612419565b92506000831115611982576118b8866118aa8b8661278990919063ffffffff16565b6127c490919063ffffffff16565b92508373ffffffffffffffffffffffffffffffffffffffff1663a9059cbb33856000604051602001526040518363ffffffff167c0100000000000000000000000000000000000000000000000000000000028152600401808373ffffffffffffffffffffffffffffffffffffffff1673ffffffffffffffffffffffffffffffffffffffff16815260200182815260200192505050602060405180830381600087803b151561196557600080fd5b6102c65a03f1151561197657600080fd5b50505060405180519050505b8180600101925050611835565b600091505b8751821015611ac75787828151811015156119ab57fe5b9060200190602002015193506119c084612419565b92506000831115611aba576119f0866119e28b8661278990919063ffffffff16565b6127c490919063ffffffff16565b92508373ffffffffffffffffffffffffffffffffffffffff1663a9059cbb33856000604051602001526040518363ffffffff167c0100000000000000000000000000000000000000000000000000000000028152600401808373ffffffffffffffffffffffffffffffffffffffff1673ffffffffffffffffffffffffffffffffffffffff16815260200182815260200192505050602060405180830381600087803b1515611a9d57600080fd5b6102c65a03f11515611aae57600080fd5b50505060405180519050505b8180600101925050611994565b600196506000600360146101000a81548160ff02191690831515021790555050505050505092915050565b6002602052816000526040600020602052806000526040600020600091509150505481565b60076020528060005260406000206000915054906101000a900473ffffffffffffffffffffffffffffffffffffffff1681565b600360149054906101000a900460ff1681565b6000600160008373ffffffffffffffffffffffffffffffffffffffff1673ffffffffffffffffffffffffffffffffffffffff168152602001908152602001600020549050919050565b60008080600560009054906101000a900460ff1660ff16141515611bc957600080fd5b600360009054906101000a900473ffffffffffffffffffffffffffffffffffffffff1673ffffffffffffffffffffffffffffffffffffffff163373ffffffffffffffffffffffffffffffffffffffff16141515611c2557600080fd5b60001515600360149054906101000a900460ff161515141515611c4757600080fd5b6001600360146101000a81548160ff021916908315150217905550600073ffffffffffffffffffffffffffffffffffffffff168573ffffffffffffffffffffffffffffffffffffffff1614151515611c9e57600080fd5b600073ffffffffffffffffffffffffffffffffffffffff168473ffffffffffffffffffffffffffffffffffffffff1614151515611cda57600080fd5b600083111515611ce957600080fd5b60016000600360009054906101000a900473ffffffffffffffffffffffffffffffffffffffff1673ffffffffffffffffffffffffffffffffffffffff1673ffffffffffffffffffffffffffffffffffffffff168152602001908152602001600020548311151515611d5957600080fd5b60088054806001018281611d6d91906127df565b9160005260206000209001600087909190916101000a81548173ffffffffffffffffffffffffffffffffffffffff021916908373ffffffffffffffffffffffffffffffffffffffff1602179055505083600760008773ffffffffffffffffffffffffffffffffffffffff1673ffffffffffffffffffffffffffffffffffffffff16815260200190815260200160002060006101000a81548173ffffffffffffffffffffffffffffffffffffffff021916908373ffffffffffffffffffffffffffffffffffffffff160217905550611eae8360016000600360009054906101000a900473ffffffffffffffffffffffffffffffffffffffff1673ffffffffffffffffffffffffffffffffffffffff1673ffffffffffffffffffffffffffffffffffffffff1681526020019081526020016000205461275290919063ffffffff16565b50611f0183600160008773ffffffffffffffffffffffffffffffffffffffff1673ffffffffffffffffffffffffffffffffffffffff1681526020019081526020016000205461276b90919063ffffffff16565b50600191506000600360146101000a81548160ff021916908315150217905550509392505050565b600360009054906101000a900473ffffffffffffffffffffffffffffffffffffffff1681565b600360159054906101000a900460ff1681565b6040805190810160405280600481526020017f414944310000000000000000000000000000000000000000000000000000000081525081565b6000600180600560009054906101000a900460ff1660ff16141515611fbf57600080fd5b42611fd760045460065461276b90919063ffffffff16565b11151515611fe457600080fd5b6002600560006101000a81548160ff021916908360ff160217905550600191505090565b60008073ffffffffffffffffffffffffffffffffffffffff168373ffffffffffffffffffffffffffffffffffffffff161415151561204557600080fd5b60008211151561205457600080fd5b600160003373ffffffffffffffffffffffffffffffffffffffff1673ffffffffffffffffffffffffffffffffffffffff1681526020019081526020016000205482111515156120a257600080fd5b600160008473ffffffffffffffffffffffffffffffffffffffff1673ffffffffffffffffffffffffffffffffffffffff1681526020019081526020016000205482600160008673ffffffffffffffffffffffffffffffffffffffff1673ffffffffffffffffffffffffffffffffffffffff168152602001908152602001600020540111151561213057600080fd5b61218282600160003373ffffffffffffffffffffffffffffffffffffffff1673ffffffffffffffffffffffffffffffffffffffff1681526020019081526020016000205461275290919063ffffffff16565b600160003373ffffffffffffffffffffffffffffffffffffffff1673ffffffffffffffffffffffffffffffffffffffff1681526020019081526020016000208190555061221782600160008673ffffffffffffffffffffffffffffffffffffffff1673ffffffffffffffffffffffffffffffffffffffff1681526020019081526020016000205461276b90919063ffffffff16565b600160008573ffffffffffffffffffffffffffffffffffffffff1673ffffffffffffffffffffffffffffffffffffffff168152602001908152602001600020819055508273ffffffffffffffffffffffffffffffffffffffff163373ffffffffffffffffffffffffffffffffffffffff167fddf252ad1be2c89b69c2b068fc378daa952ba7f163c4a11628f55a4df523b3ef846040518082815260200191505060405180910390a36001905092915050565b600560009054906101000a900460ff1681565b60008073ffffffffffffffffffffffffffffffffffffffff168373ffffffffffffffffffffffffffffffffffffffff161415151561231957600080fd5b600073ffffffffffffffffffffffffffffffffffffffff168273ffffffffffffffffffffffffffffffffffffffff161415151561235557600080fd5b600260008473ffffffffffffffffffffffffffffffffffffffff1673ffffffffffffffffffffffffffffffffffffffff16815260200190815260200160002060008373ffffffffffffffffffffffffffffffffffffffff1673ffffffffffffffffffffffffffffffffffffffff16815260200190815260200160002054905092915050565b6008818154811015156123e957fe5b90600052602060002090016000915054906101000a900473ffffffffffffffffffffffffffffffffffffffff1681565b60008073ffffffffffffffffffffffffffffffffffffffff168273ffffffffffffffffffffffffffffffffffffffff161415151561245657600080fd5b8173ffffffffffffffffffffffffffffffffffffffff166370a08231306000604051602001526040518263ffffffff167c0100000000000000000000000000000000000000000000000000000000028152600401808273ffffffffffffffffffffffffffffffffffffffff1673ffffffffffffffffffffffffffffffffffffffff168152602001915050602060405180830381600087803b15156124f957600080fd5b6102c65a03f1151561250a57600080fd5b505050604051805190509050919050565b60008080600560009054906101000a900460ff1660ff1614151561253e57600080fd5b600360009054906101000a900473ffffffffffffffffffffffffffffffffffffffff1673ffffffffffffffffffffffffffffffffffffffff163373ffffffffffffffffffffffffffffffffffffffff1614151561259a57600080fd5b6001600560006101000a81548160ff021916908360ff16021790555061262c60016000600360009054906101000a900473ffffffffffffffffffffffffffffffffffffffff1673ffffffffffffffffffffffffffffffffffffffff1673ffffffffffffffffffffffffffffffffffffffff1681526020019081526020016000205460005461275290919063ffffffff16565b506126676064612659600360159054906101000a900460ff1660ff1660005461278990919063ffffffff16565b6127c490919063ffffffff16565b60016000600360009054906101000a900473ffffffffffffffffffffffffffffffffffffffff1673ffffffffffffffffffffffffffffffffffffffff1673ffffffffffffffffffffffffffffffffffffffff1681526020019081526020016000208190555061274260016000600360009054906101000a900473ffffffffffffffffffffffffffffffffffffffff1673ffffffffffffffffffffffffffffffffffffffff1673ffffffffffffffffffffffffffffffffffffffff1681526020019081526020016000205460005461276b90919063ffffffff16565b5042600681905550600191505090565b600082821115151561276057fe5b818303905092915050565b600080828401905083811015151561277f57fe5b8091505092915050565b600080600084141561279e57600091506127bd565b82840290508284828115156127af57fe5b041415156127b957fe5b8091505b5092915050565b60008082848115156127d257fe5b0490508091505092915050565b81548183558181151161280657818360005260206000209182019101612805919061280b565b5b505050565b61282d91905b80821115612829576000816000905550600101612811565b5090565b905600a165627a7a72305820294fa6c0b03944e167ce9a8835cd04a4ac7c054b6a9be3ac70ac173be90a23c70029",
  "source": "pragma solidity ^0.4.4;\n\nimport './SafeMath.sol';\nimport './ERC20Interface.sol';\n\ncontract Aid1 is ERC20Interface {\n\n\tusing SafeMath for uint256;\n\n\t// ERC20 stuff\n\n\tuint256 public _totalSupply = 238000000000000000000000000; // 238,000,000.00\n\tstring public constant name = \"Aid-1\";\n\tstring public constant symbol = \"AID1\";\n\tuint8 public constant decimals = 18;\n\n\tmapping(address => uint256) public balances;\n\tmapping(address => mapping (address => uint256)) public allowed;\n \n\t// Owner\n\n\taddress public owner;\n\n\t// Re-entry protection \n\n\tbool public entryLock = false;\n\n\t// Contract parameters\n\n\tuint8 public ownerPercent = 10;\n\tuint256 public lockInterval = 7 years;\n\n\t// Contract variables\n\n\tuint8 public state = 0; // 0 = SETUP   1 = locked   2 = unlocked\n\tuint256 public lockTime;\n\tmapping(address => address) public toAddressByTokenAddress;\n\taddress[] public tokenAddresses;\n\n\t// ************************************************************************\n\t//\n\t// Constructor\n\t//\n\t// ************************************************************************\t\n\n\tfunction Aid1() public {\n\t\towner = msg.sender;\n\t\tbalances[owner] = _totalSupply;\n\t}\n\n\t// ************************************************************************\n\t//\n\t// Modifiers\n\t//\n\t// ************************************************************************\t\n\n\tmodifier noRentry() {\n\t\trequire(entryLock == false);\n\t\tentryLock = true;\n\t\t_;\n\t\tentryLock = false;\n\t}\n\n\tmodifier ownerOnly() {\n\t\trequire(msg.sender == owner);\n\t\t_;\n\t}\n\n\tmodifier onlyState(uint _state) {\n\t\trequire(state == _state);\n\t\t_;\n\t}\n\n\t// ************************************************************************\n\t//\n\t// Methods for all states\n\t//\n\t// ************************************************************************\t\n\n\t// ERC20 stuff\n\n\tfunction balanceOf(address _addr) public view returns(uint256 balance) {\n\t\treturn balances[_addr];\n\t}\n\n\tfunction totalSupply() public view returns(uint256) {\n \t\treturn _totalSupply;\n \t}\n\n\tevent Transfer(address indexed _from, address indexed _to, uint256 _amount);\n\tevent Approval(address indexed _owner, address indexed _spender, uint256 _amount);\t\n\n\tfunction transfer(address _to, uint256 _amount) public returns(bool sucess) {\n\t\trequire(_to != address(0));\n\t\trequire(_amount > 0);\n\t\trequire(_amount <= balances[msg.sender]);\n\t\trequire(balances[_to] + _amount > balances[_to]);\n\n\t\tbalances[msg.sender] = balances[msg.sender].sub(_amount);\n\t\tbalances[_to] = balances[_to].add(_amount);\n\n\t\tTransfer(msg.sender, _to, _amount);\n\n\t\treturn true;\n\t}\t\n\n \tfunction transferFrom(address _from, address _to, uint _amount) public returns(bool sucess) {\n\t\trequire(_to != address(0));\n\t\trequire(_amount > 0);\n\t\trequire(_amount <= balances[_from]);\n\t\trequire(_amount <= allowed[_from][msg.sender]);\n\t\trequire(balances[_to] + _amount > balances[_to]);\n\n\t\tbalances[_from] = balances[_from].sub(_amount);\n\t\tbalances[_to] = balances[_to].add(_amount);\n\t\tallowed[_from][msg.sender] = allowed[_from][msg.sender].sub(_amount);\n\n\t\tTransfer(_from, _to, _amount);\n\n\t\treturn true;\n \t}\n\n \tfunction approve(address _spender, uint _amount) public returns(bool success) {\n\n\t\trequire(_spender != address(0));\n\t\trequire(_amount > 0);\n\t\trequire(_amount <= balances[msg.sender]);\n\n\t\tallowed[msg.sender][_spender] = _amount;\n\t\tApproval(msg.sender, _spender, _amount);\n\n\t\treturn true;\n \t}\n\n\tfunction allowance(address _owner, address _spender) public view returns(uint256 remaining) {\n\n\t\trequire(_owner != address(0));\n\t\trequire(_spender != address(0));\n\t\t\n\t\treturn allowed[_owner][_spender];\n\t}\n\n\t// Non-ERC20\n\n \tfunction getTokensHeld(address _tokenAddress) public view returns(uint256) {\n\n \t\trequire(_tokenAddress != address(0));\n\n\t\treturn ERC20Interface(_tokenAddress).balanceOf(address(this));\n\t}\n\n\t// ************************************************************************\n\t//\n\t// Methods for state SETUP\n\t//\n\t// ************************************************************************\t\n\n\tfunction setupAgreement(\n\t\t\taddress _tokenAddress,\n\t\t\taddress _to, \n\t\t\tuint256 _sendAmount) public onlyState(0 /* SETUP */) ownerOnly noRentry returns(bool) {\n\n\t\trequire(_tokenAddress != address(0));\n\t\trequire(_to != address(0));\n\t\trequire(_sendAmount > 0);\n\t\trequire(_sendAmount <= balances[owner]);\n\n\t\ttokenAddresses.push(_tokenAddress);\n\t\ttoAddressByTokenAddress[_tokenAddress] = _to;\n\n\t\tbalances[owner].sub(_sendAmount);\n\t\tbalances[_to].add(_sendAmount);\n\n\t\treturn true;\n\t}\n\n\tfunction cancelAgreement(\n\t\t\taddress _tokenAddress) public onlyState(0 /* SETUP */) ownerOnly noRentry returns(bool) {\n\n\t\trequire(_tokenAddress != address(0));\n\n\t\taddress toAddresss = toAddressByTokenAddress[_tokenAddress];\n\n\t\trequire(toAddresss != address(0));\n\t\trequire(balances[toAddresss] > 0);\n\n\t\tbalances[owner].add(balances[toAddresss]);\n\t\tbalances[toAddresss] = 0;\n\n\t\tuint256 amount = getTokensHeld(_tokenAddress);\n\t\tERC20Interface(_tokenAddress).transfer(toAddresss, amount);\n\n\t\treturn true;\n\t}\n\n\tfunction returnTokens(\n\t\taddress _tokenAddress,\n\t\taddress _to,\n\t\tuint256 _amount) public onlyState(0 /* SETUP */) ownerOnly noRentry returns(bool) {\n\t\t\n\t\trequire(_to != address(0));\n\n\t\treturn ERC20Interface(_tokenAddress).transfer(_to, _amount);\n\t}\n\n\tfunction lock() public onlyState(0 /* SETUP */) ownerOnly returns(bool) {\n\n\t\tstate = 1 /* LOCKED */;\n\t\t_totalSupply.sub(balances[owner]);\n\t\tbalances[owner] = _totalSupply.mul(ownerPercent).div(100);\n\t\t_totalSupply.add(balances[owner]);\n\n\t\tlockTime = block.timestamp;\n\n\t\treturn true;\n\t}\n\n\t// ************************************************************************\n\t//\n\t// Methods for state LOCKED\n\t//\n\t// ************************************************************************\t\n\n\tfunction unlock() public onlyState(1 /* LOCKED */) returns(bool) {\n\t\trequire(lockTime.add(lockInterval) <= block.timestamp);\n\n\t\tstate = 2 /* UNLOCKED */;\n\n\t\treturn true;\n\t}\n\n\t// ************************************************************************\n\t//\n\t// Methods for state UNLOCKED\n\t//\n\t// ************************************************************************\t\n\n\tfunction cashOut(\n\t\tuint256 _amount, \n\t\taddress[] _additionalTokens) public onlyState(2 /* UNLOCKED */) noRentry returns(bool) {\n\t\t\n\t\trequire(_amount <= balances[msg.sender]);\n\t\trequire(_amount > 0);\n\n\t\tuint256 totalSupplySaved = _totalSupply;\n\n\t\t_totalSupply.sub(_amount);\n\t\tbalances[msg.sender] = balances[msg.sender].sub(_amount);\n\n\t\t// withdraw share of whatever ether the contract has accrued\n\t\tuint256 etherSum = _amount.mul(this.balance).div(totalSupplySaved);\n\t\tif(etherSum >= this.balance) {\n\t\t\tmsg.sender.send(etherSum);\n\t\t}\n\n\t\taddress tokenAddress;\n\t\tuint256 sum;\n\t\tuint index;\n\n\t\t// withdraw tokens of each kind\n\t\tfor(index = 0; index < tokenAddresses.length; index++) {\n\t\t\ttokenAddress = tokenAddresses[index];\n\t\t\tsum = getTokensHeld(tokenAddress);\n\t\t\tif(sum > 0) {\n\t\t\t\tsum = sum.mul(_amount).div(totalSupplySaved);\n\t\t\t\tERC20Interface(tokenAddress).transfer(msg.sender, sum);\n\t\t\t}\n\t\t}\n\n\t\t// withdraw tokens of each kind of additional tokens supplied by caller\n\t\tfor(index = 0; index < _additionalTokens.length; index++) {\n\t\t\ttokenAddress = _additionalTokens[index];\n\t\t\tsum = getTokensHeld(tokenAddress);\n\t\t\tif(sum > 0) {\n\t\t\t\tsum = sum.mul(_amount).div(totalSupplySaved);\n\t\t\t\tERC20Interface(tokenAddress).transfer(msg.sender, sum);\n\t\t\t}\n\t\t}\n\n\t\treturn true;\n\t}\n}\n",
  "sourcePath": "/Users/gadiguy/workspace/aid-1/contracts/Aid1.sol",
  "compiler": {
    "name": "solc",
    "version": "0.4.18+commit.9cf6e910.Emscripten.clang"
  },
  "schemaVersion": "1.0.1",
  "updatedAt": "2017-12-11T13:16:31.304Z"
}